:100000000C9463000C9433020C9480000C948000D8
:100010000C9480000C9480000C9480000C94800060
:100020000C9480000C9480000C9480000C94800050
:100030000C9480000C9480000C9480000C94800040
:100040000C9480000C9480000C9480000C94800030
:100050000C9480000C9480000C9480000C94800020
:100060000C9480000C9480000902120001010080B1
:100070003209040000000000000012011001FF001E
:100080000008C016DC050001010200011C03490044
:1000900044002000350038003100300035003000C9
:1000A00034003400340032001A036300700065002D
:1000B0002E006B0075002E00610063002E0074009E
:1000C00068000403090411241FBECFEFD4E0DEBF93
:1000D000CDBF11E0A0E0B1E0E8EBF6E002C0059092
:1000E0000D92A230B107D9F721E0A2E0B1E001C042
:1000F0001D92A233B207E1F70E9447030C945A0302
:100100000C940000FC018181813071F493B19295CF
:100110009F70982791709093060126E031E030930C
:100120001701209316010895823029F483B185FBCD
:10013000992790F906C0833081F486B182FB992714
:1001400090F981E089278093060186E091E0909301
:1001500017018093160181E00895843011F486B16F
:1001600014C0853021F483B180958170ECCF863046
:1001700029F483B181FB992790F9E3CF873011F4FB
:1001800083B1DCCF883029F483B183FB992790F9C0
:10019000D8CF893051F480E00E9419019093050175
:1001A0008093040184E091E00BC08A3079F481E00F
:1001B0000E941901909303018093020182E091E073
:1001C000909317018093160182E0089580E00895CE
:1001D00084B1807C84B987B1807F87B988B18C7FF6
:1001E00088B9429A439A2D9A2C9A2B9A2A9A299A3C
:1001F000289A089548B121E030E0662349F0B9011A
:1002000002C0660F771F8A95E2F7CB01842B09C0E5
:10021000B90102C0660F771F8A95E2F7CB0180957E
:10022000842388B9089598B18770987F892B88B9FD
:1002300008958F70806480937C0087EC80937A00AF
:1002400080917A0086FDFCCF8091780090917900B2
:100250000895CF93DF9380911801835087FD8AC062
:1002600090911501209114012D3209F081C0883040
:1002700009F07EC0CCE0D0E0C91BD109C45EDE4FDE
:1002800083EC809308018AE58093010110920701B5
:100290008881807621F0CE010E94820060C08A8130
:1002A000109211019981911106C01092120121E161
:1002B00031E082E050C0953019F4809319013DC0BF
:1002C0009630A9F59B81913019F48AE790E004C03B
:1002D000923041F488E690E09093170180931601E4
:1002E00082E121C09330F1F4811108C082EC90E0EA
:1002F000909317018093160184E015C0813041F47A
:1003000088EA90E090931701809316018AE10BC070
:10031000823041F48CE890E09093170180931601AD
:100320008CE101C080E090E49093070118C0983000
:1003300079F0993031F480931B0121E131E080E0C4
:100340000AC081E09A3009F080E021E131E003C089
:100350002BE131E081E030931701209316019F815A
:10036000911104C09E81981708F4892F8093000191
:10037000109218018091010184FF48C08091000112
:100380008F3F09F443C0C82F893008F0C8E08C1BA8
:10039000809300019091080188E8892780930801E3
:1003A000CC2339F18091160190911701209107011A
:1003B00026FF0BC0A9E0B1E0FC012C2F280F3491DF
:1003C0003D9331962E13FBCF09C0DC01E9E0F1E04B
:1003D0002C2F2E0F3D9131932E13FCCF2FEF2C0F8E
:1003E00030E02F5F3F4F820F931F90931701809350
:1003F00016016C2F89E091E00E942F02CC5FCC3077
:1004000019F08FEF80930001C093010184E199B14D
:10041000947131F48150D9F710921901109213019F
:10042000DF91CF910895E9E6F0E0808182608083DA
:10043000E89A0895A82FB92F80E090E041E050EAB3
:10044000609530E009C02D9182279795879510F02F
:1004500084279527305EC8F36F5FA8F30895EADF1D
:100460008D939D930895CF93CFB7CF93DF93C3958B
:100470004C9BE9F74C9B0BC04C9B09C04C9B07C0A5
:100480004C9B05C04C9B03C04C9B01C089C06F9323
:10049000C0911501DD27C45EDE4F2F9365E54C9BAF
:1004A00003C02F916F91E6CF0F931F934F9320E0DE
:1004B00040E15F9309B1047104FB27F93F9350E0D9
:1004C0003BE039C0147140642F77012F5F5F1EC07D
:1004D000406819B114712F7752501FC0406409B1A0
:1004E0002F770471D1F15F5F00C023C0406219B162
:1004F0002F77147191F15F5F00C025C00471102740
:10050000515012F45D5F0000115027952C3F19B136
:10051000C8F614710127015027952C3FC8F64227D1
:10052000499309B1047110274F73115027952C3F3F
:10053000A8F64695469519B1147179F00127015036
:1005400027952C3F98F66B5A60F3315009B1B0F6FD
:1005500000C011E01CBB002717C03B503195C31BE6
:10056000D04011E01CBB0881033CF9F00B34E9F0EA
:10057000209113011981110F1213EDCF093651F19A
:100580000D3211F0013E39F700931A013F915F914E
:100590004F911F910F912F916F91CCB3C0FD67CFF9
:1005A000DF91CF91CFBFCF91189520911A012223CF
:1005B00069F310911801112339F534303AF1309371
:1005C000180120931401109115013BE0311B309369
:1005D00015011CC0009118010130B4F40AE53091F6
:1005E000010134FD14C000930101C8E0D1E013C043
:1005F000052710E000C000000BB91AC0052710E065
:10060000221F1DC010E021C04AE502C032ED432F79
:10061000C4E1D0E032E01AB114615C9A0BB11AB9AE
:1006200054E120E865E320FF05270BB927951795CE
:100630001C3FF0F66695B8F7B1F720FF05270BB918
:10064000279517951C3FD0F62795179517FF052777
:1006500000001C3F0BB9B0F629913A9519F70B7EB3
:1006600010911901110FC651D0400BB911F0109320
:10067000130111E01CBB00611AB11B7E402F4B7EA1
:1006800054E05A95F1F70BB91AB94BB97FCF0E94D4
:10069000E8000E941302549A2FEF85EA9EE0215051
:1006A00080409040E1F700C00000549878940E9488
:0806B0002901FDCFF894FFCFF2
:0206B800FF5AE7
:00000001FF
